S01700004876737046757365526573746F72652E73726563F5
S11300002AC031C030C02FC02EC02DC02CC02BC080
S11300102AC029C028C027C026C025C024C023C0A8
S113002022C021C020C01E90076AFF001E910B62EF
S1130030DFFF1E920762DFFF1E930C62DFFF1E913B
S11300400862DFFF1E920662DFFF1E930B62DFFF72
S113005000000000000011241FBECFE5D4E0DEBF85
S1130060CDBF3FD00BC1CCCF9A9BFECF0895AB9AA6
S11300700000AB9808950F931F93CF93DF93082F3D
S1130080162FA898A998F3DFD8E0C0E0CC0F9A996E
S1130090C16007FF02C0A89A01C0A89817FF02C058
S11300A0A99A01C0A998E3DF000F110FD15071F78D
S11300B0A898A998DCDFDBDF8C2FDF91CF911F910B
S11300C00F910895CF93C82F6CE488E0D4DF6CE0DF
S11300D08C2FD1DF68E680E0CEDF6CE680E0CF9144
S11300E0CACF81E087BBC09AB998C19A86E0F82E3E
S11300F0EE24E394C09AB199FDCFA39AA19AA09A51
S1130100A29AA59AA49AAB98A998A898AA98AD9AE5
S1130110AC98AC9A84E18A95F1F7AD98E6E0EA955B
S1130120F1F700C0A298F4E6FA95F1F7D12CFD9C02
S1130130E00111248E010A5D1F4FF8018491882388
S113014009F47BC080E0BEDFF8010491801377C01E
S113015081E0B8DFFE01E95DFF4FE4918E136FC0CB
S113016082E0B0DFFE01E85DFF4FE4918E1367C0CB
S1130170FE01E75DFF4F0491FE01E65DFF4F149120
S1130180FE01E55DFF4FC4916CE480E474DF6CE232
S1130190802F71DF64E680E06EDF6CE680E06BDF69
S11301A063DF6CE480E067DF5FDF6CE480E463DFDF
S11301B06CE2812F60DF64E780E05DDF6CE780E064
S11301C05ADF52DF6CE480E056DF4EDFCC2389F047
S11301D06CE480E450DF6CE28C2F4DDF66E680E057
S11301E04ADF6EE680E047DF3FDF6CE480E043DF18
S11301F03BDF6CE484E03FDF68E680E03CDF6CE6F4
S113020080E039DF081319C06CE484E034DF6AE766
S113021080E031DF6EE780E02EDF18130EC0CC23C0
S113022081F06CE484E027DF6AE680E024DF6EE698
S113023080E021DF91E0C81729F090E003C0D39457
S113024076CF91E0AB98A998A898AD9AF3E0FA9587
S1130250F1F70000AC9820E130E0992311F0C09848
S113026003C088B38E2588BBE3E2F4EF3197F1F73E
S113027000C000002150310981F73CCFF894FFCF32
S9030000FC
